:0200000460009A
:10000000464346420004015600000000010303007D
:1000100000000000000000000000000000000000E0
:1000200000000000000000000000000000000000D0
:1000300000000000000000000000000000000000C0
:1000400000000000000406000000000000000000A6
:100050000000800000000000000000000000000020
:100060000000000000000000000000000000000090
:100070000000000000000000000000000000000080
:10008000EB04180A063204260000000000000000FD
:100090000000000000000000000000000000000060
:1000A0000000000000000000000000000000000050
:1000B0000000000000000000000000000000000040
:1000C0000000000000000000000000000000000030
:1000D0000000000000000000000000000000000020
:1000E0000000000000000000000000000000000010
:1000F0000000000000000000000000000000000000
:1001000000000000000000000000000000000000EF
:1001100000000000000000000000000000000000DF
:1001200000000000000000000000000000000000CF
:1001300000000000000000000000000000000000BF
:1001400000000000000000000000000000000000AF
:10015000000000000000000000000000000000009F
:10016000000000000000000000000000000000008F
:10017000000000000000000000000000000000007F
:10018000000000000000000000000000000000006F
:10019000000000000000000000000000000000005F
:1001A000000000000000000000000000000000004F
:1001B000000000000000000000000000000000003F
:1001C000000100000010000000000000000000001E
:1001D000000001000000000000000000000000001E
:1001E000000000000000000000000000000000000F
:1001F00000000000000000000000000000000000FF
:10100000D10020410020006000000000301000608E
:1010100020100060001000600000000000000000D0
:10102000000000600000800000000000FFFFFFFFE4
:10103000D203E841CC004404400FC068FFFFFFFF2B
:10104000400FC06CFFFFFFFF400FC070FFFFFFFFAE
:10105000400FC074FFFFFFFF400FC078FFFFFFFF8E
:10106000400FC07CFFFFFFFF400FC080FFFFFFFF6E
:10107000400D803000002001CC000C0C400D8100A0
:1010800000800000CC031404400FC014000A834009
:10109000401F801400000000401F80180000000066
:1010A000401F801C00000000401F80200000000046
:1010B000401F802400000000401F80280000000026
:1010C000401F802C00000000401F80300000000006
:1010D000401F803400000000401F803800000000E6
:1010E000401F803C00000000401F804000000000C6
:1010F000401F804400000000401F804800000000A6
:10110000401F804C00000000401F80500000000085
:10111000401F805400000000401F80580000000065
:10112000401F805C00000000401F80600000000045
:10113000401F806400000000401F80680000000025
:10114000401F806C00000000401F80700000000005
:10115000401F807400000000401F807800000000E5
:10116000401F807C00000000401F808000000000C5
:10117000401F808400000010401F80880000000095
:10118000401F808C00000000401F80900000000085
:10119000401F809400000000401F80980000000065
:1011A000401F809C00000000401F80A00000000045
:1011B000401F80A400000000401F80A80000000025
:1011C000401F80AC00000000401F80B00000000005
:1011D000401F8188000000E1401F818C000000E179
:1011E000401F8190000000E1401F8194000000E159
:1011F000401F8198000000E1401F819C000000E139
:10120000401F81A0000000E1401F81A4000000E118
:10121000401F81A8000000E1401F81AC000000E1F8
:10122000401F81B0000000E1401F81B4000000E1D8
:10123000401F81B8000000E1401F81BC000000E1B8
:10124000401F81C0000000E1401F81C4000000E198
:10125000401F81C8000000E1401F81CC000000E178
:10126000401F81D0000000E1401F81D4000000E158
:10127000401F81D8000000E1401F81DC000000E138
:10128000401F81E0000000E1401F81E4000000E118
:10129000401F81E8000000E1401F81EC000000E1F8
:1012A000401F81F0000000E1401F81F4000000E1D8
:1012B000401F81F8000000E1401F81FC000000E1B8
:1012C000401F8200000000E1401F8204000000E196
:1012D000401F8208000000E1401F820C000000E176
:1012E000401F8210000000E1401F8214000000E156
:1012F000401F8218000000E1401F821C000000E136
:10130000401F8220000000E1401F8224000000E115
:10131000402F000010000004402F00080000008152
:10132000402F000C00000081402F00108000001BA7
:10133000402F00148200001B402F00188400001B67
:10134000402F000400007988402F004000000F3734
:10135000402F004400652922402F00480001092049
:10136000402F004C50210A08402F0080000000212F
:10137000402F008400888888402F009400000002DD
:10138000402F009800000000402F009080000000D7
:10139000402F009CA55A000FCF000C1C402F003C92
:1013A00000000001CC001404402F009080000000D9
:1013B000402F009CA55A000CCF000C1C402F003C75
:1013C00000000001CC001404402F009080000000B9
:1013D000402F009CA55A000CCF000C1C402F003C55
:1013E00000000001CC001C04402F00A000000033CE
:1013F000402F009080000000402F009CA55A000A5A
:10140000CF000C1C402F003C00000001CC000C045D
:08141000402F004C50210A0995
:1020000000FCDF81BD2400604D250060512500608B
:102010004925006049250060492500600000000056
:1020200000000000000000000000000055250060D6
:102030004925006000000000592500605D25006012
:102040006125006065250060692500606D250060E0
:102050007125006075250060792500607D25006090
:102060008125006085250060892500608D25006040
:102070009125006095250060992500609D250060F0
:10208000A1250060492500604925006049250060C0
:10209000A5250060A9250060AD250060B125006080
:1020A000B5250060B9250060BD250060C125006030
:1020B000C5250060C9250060CD250060D1250060E0
:1020C000D5250060D9250060DD250060E125006090
:1020D000E5250060E925006049250060492500608C
:1020E00049250060492500604925006049250060B8
:1020F00049250060492500604925006049250060A8
:102100004925006049250060492500604925006097
:102110004925006049250060492500604925006087
:10212000ED250060F1250060F5250060F9250060CF
:10213000FD250060492500604925006049250060B3
:102140004925006049250060492500604925006057
:102150004925006049250060492500604925006047
:102160004925006049250060492500604925006037
:102170004925006049250060492500604925006027
:102180004925006049250060492500604925006017
:102190004925006049250060492500604925006007
:1021A000492500604925006001260060492500603E
:1021B00049250060492500604925006049250060E7
:1021C00049250060492500604925006049250060D7
:1021D00049250060492500604925006049250060C7
:1021E00049250060492500604925006049250060B7
:1021F0000526006049250060092600600D26006064
:102200004925006049250060112600601526006000
:102210004925006049250060492500604925006086
:102220004925006049250060492500604925006076
:102230004925006049250060492500604925006066
:102240004925006049250060492500604925006056
:102250004925006049250060492500604925006046
:102260004925006049250060492500604925006036
:102270004925006049250060492500604925006026
:102280004925006049250060492500604925006016
:102290004925006049250060492500604925006006
:1022A00049250060492500604925006049250060F6
:1022B00049250060492500604925006049250060E6
:1022C00049250060492500604925006049250060D6
:1022D00049250060492500604925006049250060C6
:1022E00049250060492500604925006049250060B6
:1022F00049250060492500604925006049250060A6
:102300004925006049250060492500604925006095
:102310004925006049250060492500604925006085
:102320004925006049250060492500604925006075
:102330004925006049250060492500604925006065
:102340004925006049250060492500604925006055
:102350004925006049250060492500604925006045
:102360004925006049250060492500604925006035
:102370004925006049250060492500604925006025
:102380004925006049250060492500604925006015
:102390004925006049250060492500604925006005
:1023A00049250060492500604925006049250060F5
:1023B00049250060492500604925006049250060E5
:1023C00049250060492500604925006049250060D5
:1023D00049250060492500604925006049250060C5
:1023E00049250060492500604925006049250060B5
:1023F000492500604925006049250060FFFFFFFF77
:1024000010B5054C237833B9044B13B10448AFF32E
:1024100000800123237010BD6400008000000000D4
:10242000DC47006008B5034B1BB103490348AFF319
:10243000008008BD0000000068000080DC470060EC
:10244000A3F5803A704700BF174B002B08BF134B12
:102450009D46FFF7F5FF00218B460F461348144AAF
:10246000121A01F0CDFE0E4B002B00D098470D4BF9
:10247000002B00D098470020002104000D000D48DB
:10248000002802D00C48AFF3008001F095FE200038
:10249000290000F0AFFE01F07BFE00BF0000080045
:1024A000000000000000000000FCDF8164000080EC
:1024B000C4000080000000000000000072B6164852
:1024C000164901600A6882F3088815488047154953
:1024D000154A164B9A42BEBF51F8040B42F8040B42
:1024E000F8E7134A134B9A42BEBF51F8040B42F867
:1024F000040BF8E7104B00209A42BCBF42F8040BD3
:10250000FAE70E490E4A00209142BCBF41F8040B85
:10251000FAE762B60B48804708ED00E00020006053
:102520002D400060044800600000008064000080CE
:102530000000E0810000E0810000E0816400008094
:10254000C400008049240060FFF7FEBF3248004706
:102550003248004732480047324800473248004777
:102560003248004732480047324800473248004767
:102570003248004732480047324800473248004757
:102580003248004732480047324800473248004747
:102590003248004732480047324800473248004737
:1025A0003248004732480047324800473248004727
:1025B0003248004732480047324800473248004717
:1025C0003248004732480047324800473248004707
:1025D00032480047324800473248004732480047F7
:1025E00032480047324800473248004732480047E7
:1025F00032480047324800473248004732480047D7
:1026000032480047324800473248004732480047C6
:1026100032480047324800474D2500605125006090
:1026200055250060592500605D2500604925006042
:102630004925006049250060492500604925006062
:102640004925006049250060492500604925006052
:102650004925006049250060492500604925006042
:102660004925006049250060492500604925006032
:10267000113F0060313F0060513F0060713F0060DA
:10268000913F0060B13F0060D13F0060F13F0060CA
:102690004925006049250060492500604925006002
:1026A00049250060492500604925006049250060F2
:1026B00049250060492500604925006049250060E2
:1026C00049250060492500604925006049250060D2
:1026D00049250060492500604925006049250060C2
:1026E00049250060034613F8012B002AFBD1181A74
:1026F0000138704780B483B000AF78600B4A7B68C4
:1027000043F0010353600A4B5B6A094A43F4803388
:102710005362BFF34F8F00BFBFF36F8F00BF00BF87
:102720000C37BD465DF8047B704700BF90ED00E0BC
:1027300000ED00E080B400AFBFF35F8F00BF084B37
:102740005B6A074A23F480335362064B5B68054A91
:1027500023F00103536000BFBD465DF8047B704762
:1027600000ED00E090ED00E0C2B2054BD358C0F39D
:102770004C32C0F304208240134023FA00F070472B
:1027800000C00F40C2B2054BD358C0F34C32C0F367
:1027900004208240134023FA00F0704700C00F402D
:1027A000054BD3F8703213F0100F02D1034B1868A9
:1027B00070470348704700BF00800D4094000080C0
:1027C00000366E0110B50E48FFF7CEFF68B90D4810
:1027D00001F07CF80C4CA4FB003084080B48FFF798
:1027E000D1FF0130B4FBF0F010BDFFF7D9FF044674
:1027F0000648FFF7C7FF0130B4FBF0F0F4E700BF75
:10280000242600800D001000ABAAAAAA24E00780AD
:1028100008B5FFF7D7FF034601224FF4E131104618
:1028200000F0FCFC08BD000070B582B0834D844C04
:1028300000230193834B5B6913F4003F0FD0BFF378
:102840004F8FBFF36F8F7F4B5A6922F400325A616A
:102850000022C3F85022BFF34F8FBFF36F8F794B25
:102860005B6913F4803F27D0764B0022C3F88420A5
:10287000BFF34F8F5A6922F480325A61BFF34F8FF2
:10288000D3F88060C6F34E3000E01846C6F3C902A4
:1028900043F6E07303EA401343EA82736949C1F8DF
:1028A00074321346013A002BF2D1431E0028ECD1BA
:1028B000BFF34F8FBFF36F8FFFF73CFF614B1022C9
:1028C000C3F89C20604AC3F8A020604AC3F89C204B
:1028D0005F4AC3F8A0205F49C3F89C10C3F8A0204A
:1028E0005D4AC3F89C205D4AC3F8A0201422C3F8B7
:1028F0009C205B4AC3F8A0201522C3F89C20594AAB
:10290000C3F8A0205849C3F89C10C3F8A020574A28
:10291000C3F89C20564AC3F8A020564AC3F89C200E
:10292000554AC3F8A02002E0019B01330193019BAB
:1029300024FA03F3012BF7D8019BEBB1B5FBF4F3B9
:1029400004FB135484BB019A012393403C4A9342F5
:1029500030D1019B042B33D925F01F0343F0190319
:102960003849C1F89C30019B013B5B0003F03E03FA
:10297000424A1A43C1F8A020324C414BC4F89C3063
:10298000404BC4F8A0300420FFF7B4FE636913F491
:10299000803F38D10022C4F88420BFF34F8FD4F891
:1029A0008040C4F34E3012E0374B384AB3213848E8
:1029B00001F02EFB374B354AB421354801F028FB96
:1029C000354B324AB521324801F022FB1846C4F398
:1029D000C90243F6E07303EA401343EA82731949DC
:1029E000C1F860321346013A002BF2D1431E002891
:1029F000ECD1BFF34F8F4B6943F480334B61BFF38E
:102A00004F8FBFF36F8F0F4B5B6913F4003F13D1F0
:102A1000BFF34F8FBFF36F8F0A4B0022C3F85022D2
:102A2000BFF34F8FBFF36F8F5A6942F400325A6180
:102A3000BFF34F8FBFF36F8F02B070BD0000E08116
:102A40000000200000ED00E03F00101011000080A9
:102A50003900100312000060130000602D0003060F
:102A60003B0010031F000303160000201700202066
:102A70002100030318000080310003030100080354
:102A80001A0000402B00100314420060A0420060B6
:102A90002C4200607C4200609842006010B450E814
:102AA000003F23EA0103134340E80034002CF6D131
:102AB0005DF8044B7047000070B55FFA80FE124D60
:102AC0005EF80540C0F34C33C0F30426B34024EA5B
:102AD000030CB1400B404CEA03034EF80530B0F153
:102AE000044F09D2820E202A05D0074B9B6CD3409D
:102AF00013F0010FF9D170BD044B054A40F2EA31E1
:102B0000044801F085FA00BF00C00F40B0420060E9
:102B100060430060D042006070B55FFA80FE124DE5
:102B20005EF80540C0F34C33C0F30426B34024EAFA
:102B3000030CB1400B404CEA03034EF80530B0F1F2
:102B4000044F09D2820E202A05D0074B9B6CD3403C
:102B500013F0010FF9D170BD044B054A4FF48261A7
:102B6000044801F055FA00BF00C00F40B0420060B9
:102B700050430060D042006008B5B0F5E06F0CD261
:102B8000020A00F01F030848104401FA03F203216F
:102B900099408000FFF782FF08BD044B044A40F2D1
:102BA0003241044801F034FA1AF003102443006063
:102BB0003C430060D042006008B50021FFF7DCFF15
:102BC00008BD0000014B1860704700BF94000080F2
:102BD000014B1860704700BF9800008032B1C1F30C
:102BE0000B4101444FF480334B607047C1F30B41FC
:102BF00001444FF480338B60704703290CD943683C
:102C00004FF0030C0CFA01FC23EA0C0302F0030260
:102C10008A401A434260704743684FF0070C0CFA31
:102C200001FC23EA0C0302F007028A401A434260C7
:102C30007047000010B48468054B2340890601F0FA
:102C40008061194341EA024181605DF8044B70479D
:102C5000FFFF00FB08B500F001F808BD10B54FF408
:102C60000040FFF7B5FFD94BD3F8C02242F48032C1
:102C7000C3F8C022D3F8C02222F40032C3F8C02225
:102C8000D348FFF79FFF002000F09CFD00F0D4FD2B
:102C9000012000F0C3FDCF4A136823F0FF0343F087
:102CA0007F0313600121CC48FFF706FF0121CB48C9
:102CB000FFF702FFCA4AD36823F01F0343F0120351
:102CC000D360C74B1B68002BFBDA0021C548FFF718
:102CD00023FF4FF48870FFF76FFF4FF48470FFF706
:102CE0006BFF40F21620FFF767FF4FF40670FFF707
:102CF00063FF0321BC48FFF70FFF0021BB48FFF72C
:102D00000BFF0021BA48FFF707FF4FF48A70FFF767
:102D100053FF4FF48B70FFF74FFF1820FFF74CFF66
:102D20001A20FFF749FF4FF48670FFF745FF012196
:102D3000B048FFF7F1FE40F20260FFF73DFF0221CD
:102D4000AD48FFF7E9FE0021AC48FFF7B5FE40F2C1
:102D50000460FFF731FF0221A948FFF7DDFE0021E3
:102D6000A848FFF7A9FE4FF48070FFF725FF4FF446
:102D70008170FFF721FF4FF48270FFF71DFF4FF4C2
:102D80008370FFF719FF04219F48FFF7C5FE02215A
:102D90009E48FFF791FE1620FFF70EFF03219C4887
:102DA000FFF7BAFE00219B48FFF786FE40F2125063
:102DB000FFF702FF03219848FFF7AEFE0121974875
:102DC000FFF7AAFE00219648FFF776FE40F2145066
:102DD000FFF7F2FE03219348FFF79EFE0121924880
:102DE000FFF79AFE00219148FFF766FE40F2165069
:102DF000FFF7E2FE03218E48FFF78EFE01218D488A
:102E0000FFF78AFE00218C48FFF756FE40F20620AD
:102E1000FFF7D2FE4FF40270FFF7CEFE40F20A2019
:102E2000FFF7CAFE00218548FFF776FE002184489F
:102E3000FFF742FE0E20FFF7BFFE1220FFF7BCFE99
:102E40001020FFF7B9FE1420FFF7B6FE01217D48E0
:102E5000FFF762FE02217C48FFF72EFE4FF4A360CD
:102E6000FFF7AAFE1C20FFF7A7FE0C20FFF7A4FE29
:102E70004FF48C70FFF7A0FE40F20230FFF79CFE8B
:102E800040F20630FFF798FE40F21A50FFF794FE2A
:102E900040F20E60FFF790FE00216C48FFF73CFE09
:102EA00000216B48FFF708FE40F20E50FFF784FE4A
:102EB00001216848FFF730FE07216748FFF72CFE25
:102EC00003216648FFF7F8FD40F20250FFF774FE59
:102ED00001216348FFF720FE07216248FFF71CFE2F
:102EE00003216148FFF7E8FD00216048FFF7E4FD9A
:102EF00000F0ACFC354C01225D492046FFF76EFE28
:102F0000D4F8703123F40043C4F87031D4F8703130
:102F100023F40003C4F87031236F43F40053236794
:102F2000544800F09BFC03215348FFF7C5FD0021E6
:102F30002A48FFF7C1FD00212748FFF7BDFD00210A
:102F40004E48FFF7B9FD234B1A6E22F070021A6645
:102F50001A6E22F00F0242F001021A661A6E22F473
:102F600060021A661A6E22F4F81242F440321A66AF
:102F70001A6E22F480721A661A6E22F080021A66A5
:102F80001A6E22F080721A66A4F5303400221146BF
:102F90002046FFF732FE002203212046FFF72DFED8
:102FA000002206212046FFF728FE002208212046A5
:102FB000FFF723FE00220A212046FFF71EFE002213
:102FC00011462046FFF736FE636859E000800D4049
:102FD00000366E0100C00F40186C008014390014D8
:102FE0000000084014EA00041468008010E000406B
:102FF00014FB00801CE0078024EB00801C30008064
:1030000024F000801C31008018FA008018640080D1
:1030100024790080186E008028E6008028E0078070
:103020001C6A00802CE600802CE007801C6C00806D
:1030300028F6008028F007801C6E008038F3078097
:103040003832008020E207802068008024E007807A
:103050002426008030F9008030F600803074008033
:1030600028E9008028F90080207300800C2000806F
:103070000D00700034430060187200801C26008030
:1030800023F400336360636923F0805363616369F1
:1030900023F000536361024B024A1A6010BD00BF67
:1030A000000000800065CD1D10B450E8003F23EA09
:1030B0000103134340E80034002CF6D15DF8044BC3
:1030C0007047000008B5B0F5E06F0CD2020A00F0BE
:1030D0001F030848104401FA03F2032199408000BD
:1030E000FFF7E2FF08BD044B044A40F232410448B6
:1030F00000F08EFF1AF0031024430060704300605C
:10310000D042006008B50321FFF7DCFF08BD10B412
:1031100001F00701029C4FEA041C0CF0100C41EA7C
:103120000C01016002B113605DF8044B7047009B15
:103130000BB1019A1A60704708B500F001F808BD9C
:103140002DE9F04F83B040F20240FFF7DBFFDFF8DC
:1031500098A000240194DFF894B0CDF800B0234685
:10316000224602215046FFF7D2FF1C4F0194DFF8A0
:103170008080CDF800802346224602213846FFF7A2
:10318000C6FF174D0194174E00962346224606218E
:103190002846FFF7BCFF41F2B009CDF80490CDF806
:1031A00000B02346224602215046FFF7C0FFCDF86B
:1031B0000490CDF800802346224602213846FFF7CE
:1031C000B6FF41F2B1030193009623462246062141
:1031D0002846FFF7ACFF03B0BDE8F08FD8801F4052
:1031E000E8801F405C821F40D4801F4048821F40FF
:1031F0004C821F4008B5FFF717FBFFF79DFFFFF755
:1032000029FDFFF705FB044800F034F800F05EF8F4
:10321000C0B200F047F8F9E784430060012A01D00A
:103220000120704730B585B00F4D2A74009301918D
:1032300000248DF808408DF8094001238DF80A30EC
:103240008DF80B308DF80C408DF80D408DF80E0088
:103250006946284600F0F0F9044BAB60044BEB6084
:10326000204605B030BD00BF800000800D370060F3
:10327000B13600600FB400B583B0084B1B7C53B16E
:1032800005AA01920499064800F074F803B05DF8AD
:1032900004EB04B070474FF0FF30F7E78000008088
:1032A000A532006000B583B00190074B1B7C43B191
:1032B00005488368012201A99847012003B05DF801
:1032C00004FB4FF0FF30F9E7800000800B4B1B7CC4
:1032D0006BB100B583B00948C36801220DF1070145
:1032E000984738B99DF8070003B05DF804FB4FF02C
:1032F000FF3070474FF0FF30F6E700BF80000080DE
:103300002DE9F84380460D4617461E46DDF820900D
:1033100005E04046C8473468013434600135BD4299
:10332000F7DBBDE8F88310B50A469DF80840014672
:103330004FF0000C01F801CB12680AB100200CE03C
:1033400030234370012010BD8CB14FF0410C62441A
:103350000A3A01F8012B01307246002AF3D0B2FB81
:10336000F3FE0EFB1322092AEED83032F1E74FF0BC
:10337000610CECE72DE9F04F91B007460C46039243
:10338000002606960496B146B046CEE04FF0000AFD
:10339000554600E0012575B9611C6378A3F1300240
:1033A000D2B2092AF6D80AEB8A0A03EB4A03A3F140
:1033B000300A0C46EFE7621C63782E2B3DD094F860
:1033C00001B0BBF1690F18BFBBF1640F0CBF012343
:1033D00000233ED0BBF1460F14BF00220122BBF1F7
:1033E000660F36D0002A34D1BBF1580F14BF00222B
:1033F0000122BBF1780F2CD05ABBBBF1620F14BF76
:1034000000220122BBF16F0F23D012BBBBF1750F5D
:1034100014BF00220122BBF1700F1AD0CAB9BBF150
:10342000630F00F0A080BBF1730F00F0A580584639
:10343000B847069B0133069376E000211446002925
:10344000BDD1621C6378303BDBB2092BF6D929462B
:10345000F5E7002B42D1BBF1780F18BFBBF1580F35
:103460000CBF0123002313D1BBF1780F46D01D46BA
:10347000039B1A1D03921B680493009510230022DE
:103480000DEB030107A8FFF74EFF804607AB1E18A0
:10349000BBF1620F18BFBBF16F0F09D0BBF1750F05
:1034A00014BF00230123BBF1700F01D0002B33D0D8
:1034B000039B1A1D03921B680493ABF1620BBBF1D3
:1034C000130F1FD8DFE80BF01C1E1E1E1E1E1E1E33
:1034D0001E1E1E1E1E433D1E1E1E1E40039B1A1D49
:1034E00003921B680593012200920A2305A907A8ED
:1034F000FFF719FF804607AB1E18ACE70025B7E7BA
:103500004FF0020900954B46002204A907A8FFF7D7
:103510000AFF804607AB1E18009706AB524641468D
:103520002020FFF7EDFED6B90234207800283ED0E7
:1035300025283FF42BAFB847069B0133069301348F
:10354000F3E74FF01009DDE74FF00A09DAE74FF033
:103550000809D7E7013EB847069B01330693307848
:103560000028F7D1E0E7039B1A1D03921868B847BB
:10357000069B01330693D7E7039B1A1D03921D6830
:10358000002DD1D02846FFF7ADF88046009706AB56
:10359000524601462020FFF7B3FE04E00135B8474C
:1035A000069B0133069328780028F7D1BCE70698DC
:1035B00011B0BDE8F08F00B9704742F6AF70FBE77D
:1035C00010B586B00C4601A800F0B0FB636801930B
:1035D000237A8DF80830637A8DF80B30A37A003B9C
:1035E00018BF01238DF81530E37A003B18BF012383
:1035F0008DF81430237B003B18BF01238DF80E306B
:10360000637B003B18BF01238DF80F3001238DF839
:1036100012308DF81330A07B226801A9054B53F8B6
:10362000200000F07FFA18B1FFF7C5FF06B010BD0B
:103630000020FBE79443006038B578B10C4605469E
:1036400099B18B7B082B17D8124A52F82330D3B18B
:10365000FFF7B6FF08B9A37B2B7038BD0E4B0F4A9E
:103660004FF405710E4800F0D3FC0E4B0B4A40F2AC
:1036700015210B4800F0CCFC0B4B084A40F21621F8
:10368000074800F0C5FC094B044A40F217210448E2
:1036900000F0BEFC94430060B8430060D444006076
:1036A000C84300602C4400603C44006088440060D3
:1036B00008B550B181B1B2B100780E4B53F820007B
:1036C00000F0A6FBFFF777FF08BD0B4B0B4A4FF44A
:1036D00018710B4800F09CFC0A4B084A40F261212B
:1036E000074800F095FC084B044A40F26221044868
:1036F00000F08EFC94430060B8430060E444006036
:10370000C8430060B8440060C844006008B548B1D0
:1037100079B1AAB100780E4B53F8200000F058FBA5
:10372000002008BD0B4B0C4A40F26F210B4800F003
:103730006FFC0B4B084A4FF41C71084800F068FC02
:10374000084B054A40F27121044800F061FC00BFBB
:1037500094430060B8430060FC440060C8430060CC
:10376000B8440060C8440060054BD3F8703213F0D1
:10377000100F02D1034B186870470348704700BF11
:1037800000800D409400008000366E01C1F30B41B3
:103790000858C0F300407047C1F30B43185801F0BC
:1037A0001F01C84000F00100704708B5C1F30B418C
:1037B0000B5813F4404F01D0002008BDFFF7D4FF91
:1037C000FBE7000008B5D8B9104B4FF08042C3F8B2
:1037D00058210E4BD3F8703213F4803FF9D00B4BC5
:1037E0004FF48032C3F85421084BD3F8503113F40E
:1037F000004FF9D0054B4FF48032C3F8582108BD73
:10380000034B044ABF21044800F002FC00800D4035
:1038100014450060804500602445006020B9054BD8
:103820001022C3F874227047024B1022C3F878228A
:10383000704700BF00800D40034AD2F8703243F059
:103840000103C2F87032704700800D40024B4FF404
:1038500080521A67704700BF00800D4010B4C278D4
:1038600002F00302174CD4F8E03023F4E03301797E
:10387000890389B20B4343F48033C4F8E030037802
:103880000BB142F4005283780BB142F4001243783A
:103890000BB142F480020B49D1F8E0000A4B03401F
:1038A0001343C1F8E030074BD3F8E030002BFADACD
:1038B000044AD2F8E03023F48033C2F8E0305DF8F7
:1038C000044B704700800D40FCEFFFFF70B50446CD
:1038D00001465D48FFF760FF10B90025284670BD1E
:1038E000594E21463046FFF760FF054621463046D7
:1038F000FFF74CFF0028F1D1544B9C4200F0978019
:1039000042D8A3F530039C4246D003F580039C4285
:103910002BD14D4B1A6F02F07F0207EE905AB8EE92
:10392000677B93ED205AB8EE455B27EE055B93ED80
:10393000246AB8EE466B85EE067BBCEEC77B17EEBD
:10394000101A02FB05151B6F03F4C013B3F5002F0B
:103950005FD0B3F5801F44D0002B41D03C4B3D4A93
:103960004FF454713C4800F053FBA3F5C0039C4254
:1039700008D1354B1B6913F0020F2FD0162303FB20
:1039800005F5ABE70025A9E7344B9C4258D001333D
:103990009C4257D1324DA1E707EE905AB8EE677BB3
:1039A000294B93ED146AB8EE466B27EE067B93ED38
:1039B000185AB8EE455B87EE056B1B6B13F0010FD1
:1039C00008D0162305FB03F3FCEEC67B17EE905AD6
:1039D0001D4483E705EB8505AB00F5E71423CEE72F
:1039E000AD08194BD3F8703123F07F4323F4FE0365
:1039F00023F4FF4323F07F03B3F5000F3FF46EAFD2
:103A000009D8002B3FF46AAFB3F5004F08D16D0819
:103A100064E76D08E5E7134A934201D1AD085DE71D
:103A20000B4B0C4A4FF459710B4800F0F1FA064B5E
:103A3000D3F8E03003F003030B4A52F823504DE76C
:103A40000A4D4BE7002549E700800D400D00E000DE
:103A50007845006098450060244500601500E0004E
:103A60000065CD1D00808000AC45006040787D0180
:103A700010B450E8003F23EA0103134340E8003448
:103A8000002CF6D15DF8044B7047000008B5B0F586
:103A9000E06F0CD2020A00F01F030848104401FA3C
:103AA00003F2032199408000FFF7E2FF08BD044BB9
:103AB000044A40F23241044800F0AAFA1AF0031016
:103AC0002443006040470060D042006008B50321F5
:103AD000FFF7DCFF08BD836843F00203836083685F
:103AE00023F002038360704708B5024600200828CF
:103AF00006D8084B53F82030934201D00130F6E746
:103B0000082800D808BD044B044A7B21044800F073
:103B10007FFA00BFBC450060F445006020470060AC
:103B20001C4600602DE9784779B1064694468846E0
:103B30000A6882B10B7A042B13D84B7A042B16D85F
:103B4000964604200024A2461BE06B4B6B4AF221F0
:103B50006B4800F05DFA6B4B684AF321684800F04F
:103B600057FA694B654AF521654800F051FA674BF1
:103B7000624AF621624800F04BFA511A1AE001300D
:103B8000C0B220281CD80CEB8C035B00014600FB64
:103B900002F9B3FBF9F305335D4DA5FB0353C3F302
:103BA000CF0303B9012303FB01F1BCFBF1F18A420E
:103BB000E3D2891A8E45E2D38E4604469A46DEE762
:103BC000544BA3FB0232520902EB4202724503D26C
:103BD00040F22150BDE878873046FFF785FF4E4B15
:103BE00033F91000FFF772FF3046FFF774FF3369B7
:103BF000221FD2B2032A01D843F4003323F0F85233
:103C0000631E1B0603F0F8531343444A1A40CAF3D9
:103C10000C0313433361336923F000533361B369F9
:103C20003F49194098F8040098F80F301B0203F43C
:103C3000E063034398F80E20920002F0040213435D
:103C40000B4398F80520012A4DD008B143F010032A
:103C5000B361326922F4005298F807305B0303F431
:103C600000531343336198F8092098F8083043EA69
:103C70000243F362B36A43F08803B362B36A43F466
:103C80004043B362716A98F80D301B0103F01003D2
:103C900098F80C20520102F0200213430B43736288
:103CA00098F80A301BB1736A43F00803736298F8FE
:103CB0000B301BB1736A43F00103736298F806304E
:103CC000C3B1184A736913437361B36998F810203C
:103CD0000AB143F4002398F811200AB143F4802379
:103CE000B361002076E710B123F40063B0E743F43A
:103CF0000063ADE70C4AE5E72C4400603447006000
:103D00001C4600607446006090460060D846006023
:103D1000CDCCCCCC1F85EB51E045006000E0FFFF2F
:103D2000E8F8FFFF00C01FE000C01FC010B5B8B129
:103D300004461422002100F063FA4FF4E1332360BB
:103D4000002323716371A371E37123726372A37201
:103D5000E37263732373A373E3732374637410BDFB
:103D6000034B044A40F20621034800F051F900BF1A
:103D70002C440060544700601C4600604269836A1E
:103D80001B0C03F0C303134301481840704700BFE6
:103D9000C3C0FFC110B50D4C0C4011F0030F07D08C
:103DA000826A22F47032230403F4403313438362A3
:103DB000436903F0785323434361FFF7DFFF204259
:103DC00001D1002010BD40F21A50FBE703C01FC014
:103DD00008B58C4671B90B4B0B4A40F296310B4833
:103DE00000F016F9436913F4000FFBD01CF8013BF7
:103DF000C361013A002AF5D1436913F4800FFBD067
:103E0000002008BDB84400606C4700601C4600609C
:103E10002DE9784761B105468846836913F4006F40
:103E200010D103F01203022B09D04FF0000A0BE06F
:103E3000344B354A40F2D731344800F0E9F84FF0BE
:103E4000010A01E04FF0010A00264BE04FF4002187
:103E50002846FFF79FFF002850D040F21A56304600
:103E6000BDE8788740F21A5614F4003F1BD114F4D1
:103E7000802F24D15EBBEB6A13F0E06F27D1284678
:103E8000FFF77CFF044610F4002FDFD110F4803FD1
:103E9000EAD04FF480312846FFF77CFF0028E1D1BB
:103EA0004FF4A466E0E74FF400312846FFF772FFB5
:103EB00010B940F21F56DAE740F21A56D7E74FF42E
:103EC00080212846FFF766FF88B940F21E56002E73
:103ED000C5D1BAF1000F0DD0EB6903F07F0308F8EC
:103EE000013B4A4602F1FF39002AC4D1B7E740F24C
:103EF0001A56ECE7EB6908F8013BF2E740F21D5671
:103F0000ADE700BFB8440060844700601C46006015
:103F100008B5044B1B68044A516804489847BFF32E
:103F20004F8F08BDC00000809C00008000401840FA
:103F300008B5044B1B68044A916804489847BFF3CE
:103F40004F8F08BDC00000809C000080008018409A
:103F500008B5044B1B68044AD16804489847BFF36E
:103F60004F8F08BDC00000809C00008000C018403A
:103F700008B5044B1B68044A116904489847BFF30D
:103F80004F8F08BDC00000809C00008000001940D9
:103F900008B5044B1B68044A516904489847BFF3AD
:103FA0004F8F08BDC00000809C0000800040194079
:103FB00008B5044B1B68044A916904489847BFF34D
:103FC0004F8F08BDC00000809C0000800080194019
:103FD00008B5044B1B68044AD16904489847BFF3ED
:103FE0004F8F08BDC00000809C00008000C01940B9
:103FF00008B5044B1B68044A116A04489847BFF38C
:104000004F8F08BDC00000809C00008000001A4057
:1040100000B583B08C4619460092634602460248BA
:10402000FFF728F900BEFDE79847006010B5524A37
:10403000D2F8883043F47003C2F888304F4A1389AD
:104040009BB223F001039BB213814D490B899BB2B4
:1040500023F001039BB20B81138813F0040F05D0EA
:1040600013889BB223F004039BB21380444B1B883C
:1040700013F0040F06D0424A13889BB223F00403C6
:104080009BB213803F4B1B6813F4005F4BD03D4B3A
:104090003D4A5A603B4A4FF6FF739360136823F022
:1040A000A00343F0200313604FF0E0231B6913F0DB
:1040B000010F05D04FF0E022136923F001031361D3
:1040C0002D4B5B6913F4003F18D12B4B5B6913F444
:1040D000003F13D1BFF34F8FBFF36F8F264B0022EA
:1040E000C3F85022BFF34F8FBFF36F8F5A6942F46A
:1040F00000325A61BFF34F8FBFF36F8F1E4B5B6966
:1041000013F4803F34D11C4B5B6913F4803F2FD1F3
:10411000194B0022C3F88420BFF34F8FD3F880409F
:10412000C4F34E3008E0174B4CF220525A604DF663
:1041300028125A60AEE71846C4F3C90243F6E0738A
:1041400003EA401343EA82730B49C1F86032134615
:10415000013A002BF2D1431E0028ECD1BFF34F8F60
:104160004B6943F480334B61BFF34F8FBFF36F8FC5
:1041700000F00CF810BD00BF00ED00E000800B4027
:1041800000000D4000C00B4020C528D9704700003A
:1041900008B5074B044613B10021AFF30080054B6F
:1041A0001868836A03B19847204600F031F800BFD1
:1041B00000000000D847006070B50D4D0D4C641B29
:1041C000A4100026A64209D10B4D0C4C00F006FBB2
:1041D000641BA4100026A64205D170BD55F8043B0F
:1041E00098470136EEE755F8043B98470136F2E769
:1041F000FC470060FC470060FC470060004800602E
:1042000002440346934200D1704703F8011BF9E7CB
:10421000FEE700BF21286E6F6E43616368655374CB
:1042200061727420252073697A6529002F557365A2
:1042300072732F616B6979756B692F446F63756D4C
:10424000656E74732F494D5852542D5653436F6405
:10425000652D434D616B652D536B656C746F6E2FCF
:1042600068656C6C6F5F776F726C642F626F6172E0
:10427000642F626F6172642E6300000073697A6557
:10428000203D3D202875696E7433325F74292831D2
:10429000203C3C206929000069203E3D203500007B
:1042A000424F4152445F436F6E6669674D505500FF
:1042B000627573795368696674203C3D2043434DB1
:1042C0005F4E4F5F425553595F57414954000000BC
:1042D0002F55736572732F616B6979756B692F4404
:1042E0006F63756D656E74732F494D5852542D561A
:1042F00053436F64652D434D616B652D536B656C46
:10430000746F6E2F68656C6C6F5F776F726C642F63
:10431000647269766572732F66736C5F636C6F632A
:104320006B2E6800696E646578203C3D2036554CE4
:10433000000000000001000100000000434C4F435A
:104340004B5F436F6E74726F6C4761746500000061
:10435000434C4F434B5F5365744469760000000043
:10436000434C4F434B5F5365744D7578000000001C
:10437000434C4F434B5F436F6E74726F6C47617475
:104380006500000068656C6C6F20776F726C642E3E
:104390000D0A000000000000004018400080184096
:1043A00000C018400000194000401940008019402A
:1043B00000C0194000001A404E554C4C20213D20B1
:1043C00068616E646C6500002F55736572732F61B0
:1043D0006B6979756B692F446F63756D656E747366
:1043E0002F494D5852542D5653436F64652D434DFC
:1043F000616B652D536B656C746F6E2F68656C6CAB
:104400006F5F776F726C642F636F6D706F6E656E28
:10441000742F756172742F66736C5F616461707460
:1044200065725F6C70756172742E63004E554C4CF2
:1044300020213D20636F6E6669670000636F6E66C2
:1044400069672D3E696E7374616E6365203C202838
:1044500073697A656F6628735F4C70756172744119
:104460006461707465724261736529202F207369DD
:104470007A656F66284C50554152545F5479706587
:10448000202A2929000000004E554C4C20213D20B7
:10449000735F4C70756172744164617074657242CF
:1044A0006173655B636F6E6669672D3E696E7374D9
:1044B000616E63655D0000004E554C4C20213D202F
:1044C00064617461000000006C656E677468203E72
:1044D0002030550048414C5F55617274496E6974D3
:1044E0000000000048414C5F55617274526563657D
:1044F000697665426C6F636B696E670048414C5F1B
:104500005561727453656E64426C6F636B696E675C
:1045100000000000216279706173735874616C4F00
:10452000736300002F55736572732F616B69797522
:104530006B692F446F63756D656E74732F494D58A9
:1045400052542D5653436F64652D434D616B652D59
:10455000536B656C746F6E2F68656C6C6F5F776FF3
:10456000726C642F647269766572732F66736C5F08
:10457000636C6F636B2E630066616C736500000093
:10458000434C4F434B5F496E697445787465726E56
:10459000616C436C6B000000434C4F434B5F4765BD
:1045A00074506C6C467265710000000040787D01AB
:1045B00080F0FA0200E1F5054059730700000000A1
:1045C000004018400080184000C01840000019400A
:1045D000004019400080194000C0194000001A40F6
:1045E000FFFF18051C000C001801020306031A0542
:1045F0000E060000696E7374616E6365203C204195
:10460000525241595F53495A4528735F6C70756126
:104610007274426173657329000000002F55736541
:1046200072732F616B6979756B692F446F63756D58
:10463000656E74732F494D5852542D5653436F6411
:10464000652D434D616B652D536B656C746F6E2FDB
:1046500068656C6C6F5F776F726C642F64726976DB
:104660006572732F66736C5F6C70756172742E6304
:10467000000000003055203C20636F6E6669672D96
:104680003E62617564526174655F42707300000040
:104690002875696E74385F742946534C5F464541EE
:1046A000545552455F4C50554152545F4649464F10
:1046B0005F53495A456E286261736529203E3D204B
:1046C000636F6E6669672D3E74784669666F5761E1
:1046D0007465726D61726B002875696E74385F74F1
:1046E0002946534C5F464541545552455F4C505501
:1046F0004152545F4649464F5F53495A456E2862BE
:1047000061736529203E3D20636F6E6669672D3EAB
:1047100072784669666F57617465726D61726B007D
:104720004C50554152545F476574496E7374616EC5
:10473000636500004C50554152545F496E697400E6
:10474000434C4F434B5F436F6E74726F6C476174A1
:10475000650000004C50554152545F4765744465F4
:104760006661756C74436F6E666967004C505541A5
:1047700052545F5772697465426C6F636B696E6700
:10478000000000004C50554152545F526561644234
:104790006C6F636B696E67004153534552542045FB
:1047A00052524F52202220257320223A2066696CF3
:1047B000652022257322204C696E65202225642203
:1047C0002066756E6374696F6E206E616D65202260
:1047D000257322200A00000004000080F8B500BF05
:1047E000F8BC08BC9E467047F8B500BFF8BC08BCD2
:0447F0009E4670472A
:0847F4004CDCFF7F0100000016
:0447FC002524006010
:04480000012400602F
:1048040040DCB311000000000000000000000000C4
:104814000000000000000000000000000000000094
:104824000000000000000000000000000000000084
:104834000000000000000000000000000000000074
:104844000000000000000000000000000000000064
:104854000000000000000000000000000000000054
:044864000000000050
:04000005600024BDB6
:00000001FF
